{
  "contractName": "Land",
  "abi": [
    {
      "inputs": [
        {
          "internalType": "string",
          "name": "_name",
          "type": "string"
        },
        {
          "internalType": "string",
          "name": "_symbol",
          "type": "string"
        },
        {
          "internalType": "uint256",
          "name": "_cost",
          "type": "uint256"
        }
      ],
      "stateMutability": "nonpayable",
      "type": "constructor"
    },
    {
      "anonymous": false,
      "inputs": [
        {
          "indexed": true,
          "internalType": "address",
          "name": "owner",
          "type": "address"
        },
        {
          "indexed": true,
          "internalType": "address",
          "name": "approved",
          "type": "address"
        },
        {
          "indexed": true,
          "internalType": "uint256",
          "name": "tokenId",
          "type": "uint256"
        }
      ],
      "name": "Approval",
      "type": "event"
    },
    {
      "anonymous": false,
      "inputs": [
        {
          "indexed": true,
          "internalType": "address",
          "name": "owner",
          "type": "address"
        },
        {
          "indexed": true,
          "internalType": "address",
          "name": "operator",
          "type": "address"
        },
        {
          "indexed": false,
          "internalType": "bool",
          "name": "approved",
          "type": "bool"
        }
      ],
      "name": "ApprovalForAll",
      "type": "event"
    },
    {
      "anonymous": false,
      "inputs": [
        {
          "indexed": true,
          "internalType": "address",
          "name": "from",
          "type": "address"
        },
        {
          "indexed": true,
          "internalType": "address",
          "name": "to",
          "type": "address"
        },
        {
          "indexed": true,
          "internalType": "uint256",
          "name": "tokenId",
          "type": "uint256"
        }
      ],
      "name": "Transfer",
      "type": "event"
    },
    {
      "inputs": [
        {
          "internalType": "address",
          "name": "to",
          "type": "address"
        },
        {
          "internalType": "uint256",
          "name": "tokenId",
          "type": "uint256"
        }
      ],
      "name": "approve",
      "outputs": [],
      "stateMutability": "nonpayable",
      "type": "function"
    },
    {
      "inputs": [
        {
          "internalType": "address",
          "name": "owner",
          "type": "address"
        }
      ],
      "name": "balanceOf",
      "outputs": [
        {
          "internalType": "uint256",
          "name": "",
          "type": "uint256"
        }
      ],
      "stateMutability": "view",
      "type": "function",
      "constant": true
    },
    {
      "inputs": [
        {
          "internalType": "uint256",
          "name": "",
          "type": "uint256"
        }
      ],
      "name": "buildings",
      "outputs": [
        {
          "internalType": "string",
          "name": "name",
          "type": "string"
        },
        {
          "internalType": "address",
          "name": "owner",
          "type": "address"
        },
        {
          "internalType": "int256",
          "name": "posX",
          "type": "int256"
        },
        {
          "internalType": "int256",
          "name": "posY",
          "type": "int256"
        },
        {
          "internalType": "int256",
          "name": "posZ",
          "type": "int256"
        },
        {
          "internalType": "uint256",
          "name": "sizeX",
          "type": "uint256"
        },
        {
          "internalType": "uint256",
          "name": "sizeY",
          "type": "uint256"
        },
        {
          "internalType": "uint256",
          "name": "sizeZ",
          "type": "uint256"
        }
      ],
      "stateMutability": "view",
      "type": "function",
      "constant": true
    },
    {
      "inputs": [],
      "name": "cost",
      "outputs": [
        {
          "internalType": "uint256",
          "name": "",
          "type": "uint256"
        }
      ],
      "stateMutability": "view",
      "type": "function",
      "constant": true
    },
    {
      "inputs": [
        {
          "internalType": "uint256",
          "name": "tokenId",
          "type": "uint256"
        }
      ],
      "name": "getApproved",
      "outputs": [
        {
          "internalType": "address",
          "name": "",
          "type": "address"
        }
      ],
      "stateMutability": "view",
      "type": "function",
      "constant": true
    },
    {
      "inputs": [
        {
          "internalType": "address",
          "name": "owner",
          "type": "address"
        },
        {
          "internalType": "address",
          "name": "operator",
          "type": "address"
        }
      ],
      "name": "isApprovedForAll",
      "outputs": [
        {
          "internalType": "bool",
          "name": "",
          "type": "bool"
        }
      ],
      "stateMutability": "view",
      "type": "function",
      "constant": true
    },
    {
      "inputs": [],
      "name": "maxSupply",
      "outputs": [
        {
          "internalType": "uint256",
          "name": "",
          "type": "uint256"
        }
      ],
      "stateMutability": "view",
      "type": "function",
      "constant": true
    },
    {
      "inputs": [],
      "name": "name",
      "outputs": [
        {
          "internalType": "string",
          "name": "",
          "type": "string"
        }
      ],
      "stateMutability": "view",
      "type": "function",
      "constant": true
    },
    {
      "inputs": [
        {
          "internalType": "uint256",
          "name": "tokenId",
          "type": "uint256"
        }
      ],
      "name": "ownerOf",
      "outputs": [
        {
          "internalType": "address",
          "name": "",
          "type": "address"
        }
      ],
      "stateMutability": "view",
      "type": "function",
      "constant": true
    },
    {
      "inputs": [
        {
          "internalType": "address",
          "name": "operator",
          "type": "address"
        },
        {
          "internalType": "bool",
          "name": "approved",
          "type": "bool"
        }
      ],
      "name": "setApprovalForAll",
      "outputs": [],
      "stateMutability": "nonpayable",
      "type": "function"
    },
    {
      "inputs": [
        {
          "internalType": "bytes4",
          "name": "interfaceId",
          "type": "bytes4"
        }
      ],
      "name": "supportsInterface",
      "outputs": [
        {
          "internalType": "bool",
          "name": "",
          "type": "bool"
        }
      ],
      "stateMutability": "view",
      "type": "function",
      "constant": true
    },
    {
      "inputs": [],
      "name": "symbol",
      "outputs": [
        {
          "internalType": "string",
          "name": "",
          "type": "string"
        }
      ],
      "stateMutability": "view",
      "type": "function",
      "constant": true
    },
    {
      "inputs": [
        {
          "internalType": "uint256",
          "name": "tokenId",
          "type": "uint256"
        }
      ],
      "name": "tokenURI",
      "outputs": [
        {
          "internalType": "string",
          "name": "",
          "type": "string"
        }
      ],
      "stateMutability": "view",
      "type": "function",
      "constant": true
    },
    {
      "inputs": [],
      "name": "totalSupply",
      "outputs": [
        {
          "internalType": "uint256",
          "name": "",
          "type": "uint256"
        }
      ],
      "stateMutability": "view",
      "type": "function",
      "constant": true
    },
    {
      "inputs": [
        {
          "internalType": "uint256",
          "name": "_id",
          "type": "uint256"
        }
      ],
      "name": "mint",
      "outputs": [],
      "stateMutability": "payable",
      "type": "function",
      "payable": true
    },
    {
      "inputs": [
        {
          "internalType": "address",
          "name": "from",
          "type": "address"
        },
        {
          "internalType": "address",
          "name": "to",
          "type": "address"
        },
        {
          "internalType": "uint256",
          "name": "tokenId",
          "type": "uint256"
        }
      ],
      "name": "transferFrom",
      "outputs": [],
      "stateMutability": "nonpayable",
      "type": "function"
    },
    {
      "inputs": [
        {
          "internalType": "address",
          "name": "from",
          "type": "address"
        },
        {
          "internalType": "address",
          "name": "to",
          "type": "address"
        },
        {
          "internalType": "uint256",
          "name": "tokenId",
          "type": "uint256"
        }
      ],
      "name": "safeTransferFrom",
      "outputs": [],
      "stateMutability": "nonpayable",
      "type": "function"
    },
    {
      "inputs": [
        {
          "internalType": "address",
          "name": "from",
          "type": "address"
        },
        {
          "internalType": "address",
          "name": "to",
          "type": "address"
        },
        {
          "internalType": "uint256",
          "name": "tokenId",
          "type": "uint256"
        },
        {
          "internalType": "bytes",
          "name": "_data",
          "type": "bytes"
        }
      ],
      "name": "safeTransferFrom",
      "outputs": [],
      "stateMutability": "nonpayable",
      "type": "function"
    },
    {
      "inputs": [],
      "name": "getBuildings",
      "outputs": [
        {
          "components": [
            {
              "internalType": "string",
              "name": "name",
              "type": "string"
            },
            {
              "internalType": "address",
              "name": "owner",
              "type": "address"
            },
            {
              "internalType": "int256",
              "name": "posX",
              "type": "int256"
            },
            {
              "internalType": "int256",
              "name": "posY",
              "type": "int256"
            },
            {
              "internalType": "int256",
              "name": "posZ",
              "type": "int256"
            },
            {
              "internalType": "uint256",
              "name": "sizeX",
              "type": "uint256"
            },
            {
              "internalType": "uint256",
              "name": "sizeY",
              "type": "uint256"
            },
            {
              "internalType": "uint256",
              "name": "sizeZ",
              "type": "uint256"
            }
          ],
          "internalType": "struct Land.Building[]",
          "name": "",
          "type": "tuple[]"
        }
      ],
      "stateMutability": "view",
      "type": "function",
      "constant": true
    },
    {
      "inputs": [
        {
          "internalType": "uint256",
          "name": "_id",
          "type": "uint256"
        }
      ],
      "name": "getBuilding",
      "outputs": [
        {
          "components": [
            {
              "internalType": "string",
              "name": "name",
              "type": "string"
            },
            {
              "internalType": "address",
              "name": "owner",
              "type": "address"
            },
            {
              "internalType": "int256",
              "name": "posX",
              "type": "int256"
            },
            {
              "internalType": "int256",
              "name": "posY",
              "type": "int256"
            },
            {
              "internalType": "int256",
              "name": "posZ",
              "type": "int256"
            },
            {
              "internalType": "uint256",
              "name": "sizeX",
              "type": "uint256"
            },
            {
              "internalType": "uint256",
              "name": "sizeY",
              "type": "uint256"
            },
            {
              "internalType": "uint256",
              "name": "sizeZ",
              "type": "uint256"
            }
          ],
          "internalType": "struct Land.Building",
          "name": "",
          "type": "tuple"
        }
      ],
      "stateMutability": "view",
      "type": "function",
      "constant": true
    }
  ],
  "bytecode": "0x6080604052670de0b6b3a7640000600655600560075560006008553480156200002757600080fd5b5060405162003f8238038062003f8283398181016040528101906200004d9190620008d1565b828281600090805190602001906200006792919062000798565b5080600190805190602001906200008092919062000798565b5050508060068190555060096040518061010001604052806040518060400160405280600981526020017f436974792048616c6c00000000000000000000000000000000000000000000008152508152602001600073ffffffffffffffffffffffffffffffffffffffff168152602001600081526020016000815260200160008152602001600a8152602001600a8152602001600a815250908060018154018082558091505060019003906000526020600020906008020160009091909190915060008201518160000190805190602001906200015f92919062000798565b5060208201518160010160006101000a81548173ffffffffffffffffffffffffffffffffffffffff021916908373ffffffffffffffffffffffffffffffffffffffff16021790555060408201518160020155606082015181600301556080820151816004015560a0820151816005015560c0820151816006015560e08201518160070155505060096040518061010001604052806040518060400160405280600781526020017f5374616469756d000000000000000000000000000000000000000000000000008152508152602001600073ffffffffffffffffffffffffffffffffffffffff16815260200160008152602001600a815260200160008152602001600a815260200160058152602001600381525090806001815401808255809150506001900390600052602060002090600802016000909190919091506000820151816000019080519060200190620002ba92919062000798565b5060208201518160010160006101000a81548173ffffffffffffffffffffffffffffffffffffffff021916908373ffffffffffffffffffffffffffffffffffffffff16021790555060408201518160020155606082015181600301556080820151816004015560a0820151816005015560c0820151816006015560e08201518160070155505060096040518061010001604052806040518060400160405280600a81526020017f556e6976657273697479000000000000000000000000000000000000000000008152508152602001600073ffffffffffffffffffffffffffffffffffffffff168152602001600081526020017ffffffffffffffffffffffffffffffffffffffffffffffffffffffffffffffff6815260200160008152602001600a8152602001600581526020016003815250908060018154018082558091505060019003906000526020600020906008020160009091909190915060008201518160000190805190602001906200043492919062000798565b5060208201518160010160006101000a81548173ffffffffffffffffffffffffffffffffffffffff021916908373ffffffffffffffffffffffffffffffffffffffff16021790555060408201518160020155606082015181600301556080820151816004015560a0820151816005015560c0820151816006015560e08201518160070155505060096040518061010001604052806040518060400160405280601081526020017f53686f7070696e6720506c617a612031000000000000000000000000000000008152508152602001600073ffffffffffffffffffffffffffffffffffffffff168152602001600a8152602001600081526020016000815260200160058152602001601981526020016005815250908060018154018082558091505060019003906000526020600020906008020160009091909190915060008201518160000190805190602001906200058f92919062000798565b5060208201518160010160006101000a81548173ffffffffffffffffffffffffffffffffffffffff021916908373ffffffffffffffffffffffffffffffffffffffff16021790555060408201518160020155606082015181600301556080820151816004015560a0820151816005015560c0820151816006015560e08201518160070155505060096040518061010001604052806040518060400160405280601081526020017f53686f7070696e6720506c617a612032000000000000000000000000000000008152508152602001600073ffffffffffffffffffffffffffffffffffffffff1681526020017ffffffffffffffffffffffffffffffffffffffffffffffffffffffffffffffff68152602001600081526020016000815260200160058152602001601981526020016005815250908060018154018082558091505060019003906000526020600020906008020160009091909190915060008201518160000190805190602001906200070992919062000798565b5060208201518160010160006101000a81548173ffffffffffffffffffffffffffffffffffffffff021916908373ffffffffffffffffffffffffffffffffffffffff16021790555060408201518160020155606082015181600301556080820151816004015560a0820151816005015560c0820151816006015560e08201518160070155505050505062000aed565b828054620007a690620009f8565b90600052602060002090601f016020900481019282620007ca576000855562000816565b82601f10620007e557805160ff191683800117855562000816565b8280016001018555821562000816579182015b8281111562000815578251825591602001919060010190620007f8565b5b50905062000825919062000829565b5090565b5b80821115620008445760008160009055506001016200082a565b5090565b60006200085f620008598462000982565b62000959565b9050828152602081018484840111156200087857600080fd5b62000885848285620009c2565b509392505050565b600082601f8301126200089f57600080fd5b8151620008b184826020860162000848565b91505092915050565b600081519050620008cb8162000ad3565b92915050565b600080600060608486031215620008e757600080fd5b600084015167ffffffffffffffff8111156200090257600080fd5b62000910868287016200088d565b935050602084015167ffffffffffffffff8111156200092e57600080fd5b6200093c868287016200088d565b92505060406200094f86828701620008ba565b9150509250925092565b60006200096562000978565b905062000973828262000a2e565b919050565b6000604051905090565b600067ffffffffffffffff821115620009a0576200099f62000a93565b5b620009ab8262000ac2565b9050602081019050919050565b6000819050919050565b60005b83811015620009e2578082015181840152602081019050620009c5565b83811115620009f2576000848401525b50505050565b6000600282049050600182168062000a1157607f821691505b6020821081141562000a285762000a2762000a64565b5b50919050565b62000a398262000ac2565b810181811067ffffffffffffffff8211171562000a5b5762000a5a62000a93565b5b80604052505050565b7f4e487b7100000000000000000000000000000000000000000000000000000000600052602260045260246000fd5b7f4e487b7100000000000000000000000000000000000000000000000000000000600052604160045260246000fd5b6000601f19601f8301169050919050565b62000ade81620009b8565b811462000aea57600080fd5b50565b6134858062000afd6000396000f3fe60806040526004361061011f5760003560e01c806370a08231116100a0578063b88d4fde11610064578063b88d4fde14610405578063c87b56dd1461042e578063d5abeb011461046b578063d9cf6a2614610496578063e985e9c5146104c15761011f565b806370a082311461031b57806395d89b41146103585780639dfd8b0214610383578063a0712d68146103c0578063a22cb465146103dc5761011f565b806318160ddd116100e757806318160ddd1461021d57806323b872dd1461024857806342842e0e146102715780634c96a0621461029a5780636352211e146102de5761011f565b806301ffc9a71461012457806306fdde0314610161578063081812fc1461018c578063095ea7b3146101c957806313faede6146101f2575b600080fd5b34801561013057600080fd5b5061014b6004803603810190610146919061227a565b6104fe565b60405161015891906128dd565b60405180910390f35b34801561016d57600080fd5b506101766105e0565b60405161018391906128f8565b60405180910390f35b34801561019857600080fd5b506101b360048036038101906101ae91906122cc565b610672565b6040516101c09190612854565b60405180910390f35b3480156101d557600080fd5b506101f060048036038101906101eb919061223e565b6106f7565b005b3480156101fe57600080fd5b5061020761080f565b6040516102149190612ba1565b60405180910390f35b34801561022957600080fd5b50610232610815565b60405161023f9190612ba1565b60405180910390f35b34801561025457600080fd5b5061026f600480360381019061026a9190612138565b61081b565b005b34801561027d57600080fd5b5061029860048036038101906102939190612138565b610911565b005b3480156102a657600080fd5b506102c160048036038101906102bc91906122cc565b610931565b6040516102d598979695949392919061291a565b60405180910390f35b3480156102ea57600080fd5b50610305600480360381019061030091906122cc565b610a31565b6040516103129190612854565b60405180910390f35b34801561032757600080fd5b50610342600480360381019061033d91906120d3565b610ae3565b60405161034f9190612ba1565b60405180910390f35b34801561036457600080fd5b5061036d610b9b565b60405161037a91906128f8565b60405180910390f35b34801561038f57600080fd5b506103aa60048036038101906103a591906122cc565b610c2d565b6040516103b79190612b7f565b60405180910390f35b6103da60048036038101906103d591906122cc565b610dc0565b005b3480156103e857600080fd5b5061040360048036038101906103fe9190612202565b610f54565b005b34801561041157600080fd5b5061042c60048036038101906104279190612187565b610f6a565b005b34801561043a57600080fd5b50610455600480360381019061045091906122cc565b611062565b60405161046291906128f8565b60405180910390f35b34801561047757600080fd5b50610480611109565b60405161048d9190612ba1565b60405180910390f35b3480156104a257600080fd5b506104ab61110f565b6040516104b891906128bb565b60405180910390f35b3480156104cd57600080fd5b506104e860048036038101906104e391906120fc565b611293565b6040516104f591906128dd565b60405180910390f35b60007f80ac58cd000000000000000000000000000000000000000000000000000000007bffffffffffffffffffffffffffffffffffffffffffffffffffffffff1916827bffffffffffffffffffffffffffffffffffffffffffffffffffffffff191614806105c957507f5b5e139f000000000000000000000000000000000000000000000000000000007bffffffffffffffffffffffffffffffffffffffffffffffffffffffff1916827bffffffffffffffffffffffffffffffffffffffffffffffffffffffff1916145b806105d957506105d882611327565b5b9050919050565b6060600080546105ef90612e1a565b80601f016020809104026020016040519081016040528092919081815260200182805461061b90612e1a565b80156106685780601f1061063d57610100808354040283529160200191610668565b820191906000526020600020905b81548152906001019060200180831161064b57829003601f168201915b5050505050905090565b600061067d82611391565b6106bc576040517f08c379a00000000000000000000000000000000000000000000000000000000081526004016106b390612aff565b60405180910390fd5b6004600083815260200190815260200160002060009054906101000a900473ffffffffffffffffffffffffffffffffffffffff169050919050565b600061070282610a31565b90508073ffffffffffffffffffffffffffffffffffffffff168373ffffffffffffffffffffffffffffffffffffffff161415610773576040517f08c379a000000000000000000000000000000000000000000000000000000000815260040161076a90612b3f565b60405180910390fd5b8073ffffffffffffffffffffffffffffffffffffffff166107926113fd565b73ffffffffffffffffffffffffffffffffffffffff1614806107c157506107c0816107bb6113fd565b611293565b5b610800576040517f08c379a00000000000000000000000000000000000000000000000000000000081526004016107f790612a7f565b60405180910390fd5b61080a8383611405565b505050565b60065481565b60085481565b61082c6108266113fd565b826114be565b61086b576040517f08c379a000000000000000000000000000000000000000000000000000000000815260040161086290612a5f565b60405180910390fd5b81600960018361087b9190612d26565b815481106108b2577f4e487b7100000000000000000000000000000000000000000000000000000000600052603260045260246000fd5b906000526020600020906008020160010160006101000a81548173ffffffffffffffffffffffffffffffffffffffff021916908373ffffffffffffffffffffffffffffffffffffffff16021790555061090c83838361159c565b505050565b61092c83838360405180602001604052806000815250610f6a565b505050565b6009818154811061094157600080fd5b906000526020600020906008020160009150905080600001805461096490612e1a565b80601f016020809104026020016040519081016040528092919081815260200182805461099090612e1a565b80156109dd5780601f106109b2576101008083540402835291602001916109dd565b820191906000526020600020905b8154815290600101906020018083116109c057829003601f168201915b5050505050908060010160009054906101000a900473ffffffffffffffffffffffffffffffffffffffff16908060020154908060030154908060040154908060050154908060060154908060070154905088565b6000806002600084815260200190815260200160002060009054906101000a900473ffffffffffffffffffffffffffffffffffffffff169050600073ffffffffffffffffffffffffffffffffffffffff168173ffffffffffffffffffffffffffffffffffffffff161415610ada576040517f08c379a0000000000000000000000000000000000000000000000000000000008152600401610ad190612abf565b60405180910390fd5b80915050919050565b60008073ffffffffffffffffffffffffffffffffffffffff168273ffffffffffffffffffffffffffffffffffffffff161415610b54576040517f08c379a0000000000000000000000000000000000000000000000000000000008152600401610b4b90612a9f565b60405180910390fd5b600360008373ffffffffffffffffffffffffffffffffffffffff1673ffffffffffffffffffffffffffffffffffffffff168152602001908152602001600020549050919050565b606060018054610baa90612e1a565b80601f0160208091040260200160405190810160405280929190818152602001828054610bd690612e1a565b8015610c235780601f10610bf857610100808354040283529160200191610c23565b820191906000526020600020905b815481529060010190602001808311610c0657829003601f168201915b5050505050905090565b610c35611fa7565b6009600183610c449190612d26565b81548110610c7b577f4e487b7100000000000000000000000000000000000000000000000000000000600052603260045260246000fd5b906000526020600020906008020160405180610100016040529081600082018054610ca590612e1a565b80601f0160208091040260200160405190810160405280929190818152602001828054610cd190612e1a565b8015610d1e5780601f10610cf357610100808354040283529160200191610d1e565b820191906000526020600020905b815481529060010190602001808311610d0157829003601f168201915b505050505081526020016001820160009054906101000a900473ffffffffffffffffffffffffffffffffffffffff1673ffffffffffffffffffffffffffffffffffffffff1673ffffffffffffffffffffffffffffffffffffffff16815260200160028201548152602001600382015481526020016004820154815260200160058201548152602001600682015481526020016007820154815250509050919050565b60006008549050600754811115610dd657600080fd5b600073ffffffffffffffffffffffffffffffffffffffff166009600184610dfd9190612d26565b81548110610e34577f4e487b7100000000000000000000000000000000000000000000000000000000600052603260045260246000fd5b906000526020600020906008020160010160009054906101000a900473ffffffffffffffffffffffffffffffffffffffff1673ffffffffffffffffffffffffffffffffffffffff1614610e8657600080fd5b670de0b6b3a7640000341015610e9b57600080fd5b336009600184610eab9190612d26565b81548110610ee2577f4e487b7100000000000000000000000000000000000000000000000000000000600052603260045260246000fd5b906000526020600020906008020160010160006101000a81548173ffffffffffffffffffffffffffffffffffffffff021916908373ffffffffffffffffffffffffffffffffffffffff1602179055506001600854610f409190612c9f565b600881905550610f503383611803565b5050565b610f66610f5f6113fd565b8383611821565b5050565b610f7b610f756113fd565b836114be565b610fba576040517f08c379a0000000000000000000000000000000000000000000000000000000008152600401610fb190612b5f565b60405180910390fd5b826009600184610fca9190612d26565b81548110611001577f4e487b7100000000000000000000000000000000000000000000000000000000600052603260045260246000fd5b906000526020600020906008020160010160006101000a81548173ffffffffffffffffffffffffffffffffffffffff021916908373ffffffffffffffffffffffffffffffffffffffff16021790555061105c8484848461198e565b50505050565b606061106d82611391565b6110ac576040517f08c379a00000000000000000000000000000000000000000000000000000000081526004016110a390612b1f565b60405180910390fd5b60006110b66119ea565b905060008151116110d65760405180602001604052806000815250611101565b806110e084611a01565b6040516020016110f1929190612830565b6040516020818303038152906040525b915050919050565b60075481565b60606009805480602002602001604051908101604052809291908181526020016000905b8282101561128a57838290600052602060002090600802016040518061010001604052908160008201805461116790612e1a565b80601f016020809104026020016040519081016040528092919081815260200182805461119390612e1a565b80156111e05780601f106111b5576101008083540402835291602001916111e0565b820191906000526020600020905b8154815290600101906020018083116111c357829003601f168201915b505050505081526020016001820160009054906101000a900473ffffffffffffffffffffffffffffffffffffffff1673ffffffffffffffffffffffffffffffffffffffff1673ffffffffffffffffffffffffffffffffffffffff168152602001600282015481526020016003820154815260200160048201548152602001600582015481526020016006820154815260200160078201548152505081526020019060010190611133565b50505050905090565b6000600560008473ffffffffffffffffffffffffffffffffffffffff1673ffffffffffffffffffffffffffffffffffffffff16815260200190815260200160002060008373ffffffffffffffffffffffffffffffffffffffff1673ffffffffffffffffffffffffffffffffffffffff16815260200190815260200160002060009054906101000a900460ff16905092915050565b60007f01ffc9a7000000000000000000000000000000000000000000000000000000007bffffffffffffffffffffffffffffffffffffffffffffffffffffffff1916827bffffffffffffffffffffffffffffffffffffffffffffffffffffffff1916149050919050565b60008073ffffffffffffffffffffffffffffffffffffffff166002600084815260200190815260200160002060009054906101000a900473ffffffffffffffffffffffffffffffffffffffff1673ffffffffffffffffffffffffffffffffffffffff1614159050919050565b600033905090565b816004600083815260200190815260200160002060006101000a81548173ffffffffffffffffffffffffffffffffffffffff021916908373ffffffffffffffffffffffffffffffffffffffff160217905550808273ffffffffffffffffffffffffffffffffffffffff1661147883610a31565b73ffffffffffffffffffffffffffffffffffffffff167f8c5be1e5ebec7d5bd14f71427d1e84f3dd0314c0f7b2291e5b200ac8c7c3b92560405160405180910390a45050565b60006114c982611391565b611508576040517f08c379a00000000000000000000000000000000000000000000000000000000081526004016114ff90612a3f565b60405180910390fd5b600061151383610a31565b90508073ffffffffffffffffffffffffffffffffffffffff168473ffffffffffffffffffffffffffffffffffffffff16148061158257508373ffffffffffffffffffffffffffffffffffffffff1661156a84610672565b73ffffffffffffffffffffffffffffffffffffffff16145b8061159357506115928185611293565b5b91505092915050565b8273ffffffffffffffffffffffffffffffffffffffff166115bc82610a31565b73ffffffffffffffffffffffffffffffffffffffff1614611612576040517f08c379a0000000000000000000000000000000000000000000000000000000008152600401611609906129bf565b60405180910390fd5b600073ffffffffffffffffffffffffffffffffffffffff168273ffffffffffffffffffffffffffffffffffffffff161415611682576040517f08c379a0000000000000000000000000000000000000000000000000000000008152600401611679906129ff565b60405180910390fd5b61168d838383611bae565b611698600082611405565b6001600360008573ffffffffffffffffffffffffffffffffffffffff1673ffffffffffffffffffffffffffffffffffffffff16815260200190815260200160002060008282546116e89190612d26565b925050819055506001600360008473ffffffffffffffffffffffffffffffffffffffff1673ffffffffffffffffffffffffffffffffffffffff168152602001908152602001600020600082825461173f9190612c9f565b92505081905550816002600083815260200190815260200160002060006101000a81548173ffffffffffffffffffffffffffffffffffffffff021916908373ffffffffffffffffffffffffffffffffffffffff160217905550808273ffffffffffffffffffffffffffffffffffffffff168473ffffffffffffffffffffffffffffffffffffffff167fddf252ad1be2c89b69c2b068fc378daa952ba7f163c4a11628f55a4df523b3ef60405160405180910390a46117fe838383611bb3565b505050565b61181d828260405180602001604052806000815250611bb8565b5050565b8173ffffffffffffffffffffffffffffffffffffffff168373ffffffffffffffffffffffffffffffffffffffff161415611890576040517f08c379a000000000000000000000000000000000000000000000000000000000815260040161188790612a1f565b60405180910390fd5b80600560008573ffffffffffffffffffffffffffffffffffffffff1673ffffffffffffffffffffffffffffffffffffffff16815260200190815260200160002060008473ffffffffffffffffffffffffffffffffffffffff1673ffffffffffffffffffffffffffffffffffffffff16815260200190815260200160002060006101000a81548160ff0219169083151502179055508173ffffffffffffffffffffffffffffffffffffffff168373ffffffffffffffffffffffffffffffffffffffff167f17307eab39ab6107e8899845ad3d59bd9653f200f220920489ca2b5937696c318360405161198191906128dd565b60405180910390a3505050565b61199984848461159c565b6119a584848484611c13565b6119e4576040517f08c379a00000000000000000000000000000000000000000000000000000000081526004016119db9061299f565b60405180910390fd5b50505050565b606060405180602001604052806000815250905090565b60606000821415611a49576040518060400160405280600181526020017f30000000000000000000000000000000000000000000000000000000000000008152509050611ba9565b600082905060005b60008214611a7b578080611a6490612e7d565b915050600a82611a749190612cf5565b9150611a51565b60008167ffffffffffffffff811115611abd577f4e487b7100000000000000000000000000000000000000000000000000000000600052604160045260246000fd5b6040519080825280601f01601f191660200182016040528015611aef5781602001600182028036833780820191505090505b5090505b60008514611ba257600182611b089190612d26565b9150600a85611b179190612ec6565b6030611b239190612c9f565b60f81b818381518110611b5f577f4e487b7100000000000000000000000000000000000000000000000000000000600052603260045260246000fd5b60200101907effffffffffffffffffffffffffffffffffffffffffffffffffffffffffffff1916908160001a905350600a85611b9b9190612cf5565b9450611af3565b8093505050505b919050565b505050565b505050565b611bc28383611daa565b611bcf6000848484611c13565b611c0e576040517f08c379a0000000000000000000000000000000000000000000000000000000008152600401611c059061299f565b60405180910390fd5b505050565b6000611c348473ffffffffffffffffffffffffffffffffffffffff16611f84565b15611d9d578373ffffffffffffffffffffffffffffffffffffffff1663150b7a02611c5d6113fd565b8786866040518563ffffffff1660e01b8152600401611c7f949392919061286f565b602060405180830381600087803b158015611c9957600080fd5b505af1925050508015611cca57506040513d601f19601f82011682018060405250810190611cc791906122a3565b60015b611d4d573d8060008114611cfa576040519150601f19603f3d011682016040523d82523d6000602084013e611cff565b606091505b50600081511415611d45576040517f08c379a0000000000000000000000000000000000000000000000000000000008152600401611d3c9061299f565b60405180910390fd5b805181602001fd5b63150b7a0260e01b7bffffffffffffffffffffffffffffffffffffffffffffffffffffffff1916817bffffffffffffffffffffffffffffffffffffffffffffffffffffffff191614915050611da2565b600190505b949350505050565b600073ffffffffffffffffffffffffffffffffffffffff168273ffffffffffffffffffffffffffffffffffffffff161415611e1a576040517f08c379a0000000000000000000000000000000000000000000000000000000008152600401611e1190612adf565b60405180910390fd5b611e2381611391565b15611e63576040517f08c379a0000000000000000000000000000000000000000000000000000000008152600401611e5a906129df565b60405180910390fd5b611e6f60008383611bae565b6001600360008473ffffffffffffffffffffffffffffffffffffffff1673ffffffffffffffffffffffffffffffffffffffff1681526020019081526020016000206000828254611ebf9190612c9f565b92505081905550816002600083815260200190815260200160002060006101000a81548173ffffffffffffffffffffffffffffffffffffffff021916908373ffffffffffffffffffffffffffffffffffffffff160217905550808273ffffffffffffffffffffffffffffffffffffffff16600073ffffffffffffffffffffffffffffffffffffffff167fddf252ad1be2c89b69c2b068fc378daa952ba7f163c4a11628f55a4df523b3ef60405160405180910390a4611f8060008383611bb3565b5050565b6000808273ffffffffffffffffffffffffffffffffffffffff163b119050919050565b60405180610100016040528060608152602001600073ffffffffffffffffffffffffffffffffffffffff1681526020016000815260200160008152602001600081526020016000815260200160008152602001600081525090565b600061201561201084612be1565b612bbc565b90508281526020810184848401111561202d57600080fd5b612038848285612dd8565b509392505050565b60008135905061204f816133f3565b92915050565b6000813590506120648161340a565b92915050565b60008135905061207981613421565b92915050565b60008151905061208e81613421565b92915050565b600082601f8301126120a557600080fd5b81356120b5848260208601612002565b91505092915050565b6000813590506120cd81613438565b92915050565b6000602082840312156120e557600080fd5b60006120f384828501612040565b91505092915050565b6000806040838503121561210f57600080fd5b600061211d85828601612040565b925050602061212e85828601612040565b9150509250929050565b60008060006060848603121561214d57600080fd5b600061215b86828701612040565b935050602061216c86828701612040565b925050604061217d868287016120be565b9150509250925092565b6000806000806080858703121561219d57600080fd5b60006121ab87828801612040565b94505060206121bc87828801612040565b93505060406121cd878288016120be565b925050606085013567ffffffffffffffff8111156121ea57600080fd5b6121f687828801612094565b91505092959194509250565b6000806040838503121561221557600080fd5b600061222385828601612040565b925050602061223485828601612055565b9150509250929050565b6000806040838503121561225157600080fd5b600061225f85828601612040565b9250506020612270858286016120be565b9150509250929050565b60006020828403121561228c57600080fd5b600061229a8482850161206a565b91505092915050565b6000602082840312156122b557600080fd5b60006122c38482850161207f565b91505092915050565b6000602082840312156122de57600080fd5b60006122ec848285016120be565b91505092915050565b600061230183836126b2565b905092915050565b61231281612d5a565b82525050565b61232181612d5a565b82525050565b600061233282612c22565b61233c8185612c50565b93508360208202850161234e85612c12565b8060005b8581101561238a578484038952815161236b85826122f5565b945061237683612c43565b925060208a01995050600181019050612352565b50829750879550505050505092915050565b6123a581612d6c565b82525050565b60006123b682612c2d565b6123c08185612c61565b93506123d0818560208601612de7565b6123d981612fb3565b840191505092915050565b6123ed81612da4565b82525050565b6123fc81612da4565b82525050565b600061240d82612c38565b6124178185612c72565b9350612427818560208601612de7565b61243081612fb3565b840191505092915050565b600061244682612c38565b6124508185612c83565b9350612460818560208601612de7565b61246981612fb3565b840191505092915050565b600061247f82612c38565b6124898185612c94565b9350612499818560208601612de7565b80840191505092915050565b60006124b2603283612c83565b91506124bd82612fc4565b604082019050919050565b60006124d5602583612c83565b91506124e082613013565b604082019050919050565b60006124f8601c83612c83565b915061250382613062565b602082019050919050565b600061251b602483612c83565b91506125268261308b565b604082019050919050565b600061253e601983612c83565b9150612549826130da565b602082019050919050565b6000612561602c83612c83565b915061256c82613103565b604082019050919050565b6000612584603083612c83565b915061258f82613152565b604082019050919050565b60006125a7603883612c83565b91506125b2826131a1565b604082019050919050565b60006125ca602a83612c83565b91506125d5826131f0565b604082019050919050565b60006125ed602983612c83565b91506125f88261323f565b604082019050919050565b6000612610602083612c83565b915061261b8261328e565b602082019050919050565b6000612633602c83612c83565b915061263e826132b7565b604082019050919050565b6000612656602f83612c83565b915061266182613306565b604082019050919050565b6000612679602183612c83565b915061268482613355565b604082019050919050565b600061269c603183612c83565b91506126a7826133a4565b604082019050919050565b60006101008301600083015184820360008601526126d08282612402565b91505060208301516126e56020860182612309565b5060408301516126f860408601826123e4565b50606083015161270b60608601826123e4565b50608083015161271e60808601826123e4565b5060a083015161273160a0860182612812565b5060c083015161274460c0860182612812565b5060e083015161275760e0860182612812565b508091505092915050565b60006101008301600083015184820360008601526127808282612402565b91505060208301516127956020860182612309565b5060408301516127a860408601826123e4565b5060608301516127bb60608601826123e4565b5060808301516127ce60808601826123e4565b5060a08301516127e160a0860182612812565b5060c08301516127f460c0860182612812565b5060e083015161280760e0860182612812565b508091505092915050565b61281b81612dce565b82525050565b61282a81612dce565b82525050565b600061283c8285612474565b91506128488284612474565b91508190509392505050565b60006020820190506128696000830184612318565b92915050565b60006080820190506128846000830187612318565b6128916020830186612318565b61289e6040830185612821565b81810360608301526128b081846123ab565b905095945050505050565b600060208201905081810360008301526128d58184612327565b905092915050565b60006020820190506128f2600083018461239c565b92915050565b60006020820190508181036000830152612912818461243b565b905092915050565b6000610100820190508181036000830152612935818b61243b565b9050612944602083018a612318565b61295160408301896123f3565b61295e60608301886123f3565b61296b60808301876123f3565b61297860a0830186612821565b61298560c0830185612821565b61299260e0830184612821565b9998505050505050505050565b600060208201905081810360008301526129b8816124a5565b9050919050565b600060208201905081810360008301526129d8816124c8565b9050919050565b600060208201905081810360008301526129f8816124eb565b9050919050565b60006020820190508181036000830152612a188161250e565b9050919050565b60006020820190508181036000830152612a3881612531565b9050919050565b60006020820190508181036000830152612a5881612554565b9050919050565b60006020820190508181036000830152612a7881612577565b9050919050565b60006020820190508181036000830152612a988161259a565b9050919050565b60006020820190508181036000830152612ab8816125bd565b9050919050565b60006020820190508181036000830152612ad8816125e0565b9050919050565b60006020820190508181036000830152612af881612603565b9050919050565b60006020820190508181036000830152612b1881612626565b9050919050565b60006020820190508181036000830152612b3881612649565b9050919050565b60006020820190508181036000830152612b588161266c565b9050919050565b60006020820190508181036000830152612b788161268f565b9050919050565b60006020820190508181036000830152612b998184612762565b905092915050565b6000602082019050612bb66000830184612821565b92915050565b6000612bc6612bd7565b9050612bd28282612e4c565b919050565b6000604051905090565b600067ffffffffffffffff821115612bfc57612bfb612f84565b5b612c0582612fb3565b9050602081019050919050565b6000819050602082019050919050565b600081519050919050565b600081519050919050565b600081519050919050565b6000602082019050919050565b600082825260208201905092915050565b600082825260208201905092915050565b600082825260208201905092915050565b600082825260208201905092915050565b600081905092915050565b6000612caa82612dce565b9150612cb583612dce565b9250827fffffffffffffffffffffffffffffffffffffffffffffffffffffffffffffffff03821115612cea57612ce9612ef7565b5b828201905092915050565b6000612d0082612dce565b9150612d0b83612dce565b925082612d1b57612d1a612f26565b5b828204905092915050565b6000612d3182612dce565b9150612d3c83612dce565b925082821015612d4f57612d4e612ef7565b5b828203905092915050565b6000612d6582612dae565b9050919050565b60008115159050919050565b60007fffffffff0000000000000000000000000000000000000000000000000000000082169050919050565b6000819050919050565b600073ffffffffffffffffffffffffffffffffffffffff82169050919050565b6000819050919050565b82818337600083830152505050565b60005b83811015612e05578082015181840152602081019050612dea565b83811115612e14576000848401525b50505050565b60006002820490506001821680612e3257607f821691505b60208210811415612e4657612e45612f55565b5b50919050565b612e5582612fb3565b810181811067ffffffffffffffff82111715612e7457612e73612f84565b5b80604052505050565b6000612e8882612dce565b91507fffffffffffffffffffffffffffffffffffffffffffffffffffffffffffffffff821415612ebb57612eba612ef7565b5b600182019050919050565b6000612ed182612dce565b9150612edc83612dce565b925082612eec57612eeb612f26565b5b828206905092915050565b7f4e487b7100000000000000000000000000000000000000000000000000000000600052601160045260246000fd5b7f4e487b7100000000000000000000000000000000000000000000000000000000600052601260045260246000fd5b7f4e487b7100000000000000000000000000000000000000000000000000000000600052602260045260246000fd5b7f4e487b7100000000000000000000000000000000000000000000000000000000600052604160045260246000fd5b6000601f19601f8301169050919050565b7f4552433732313a207472616e7366657220746f206e6f6e20455243373231526560008201527f63656976657220696d706c656d656e7465720000000000000000000000000000602082015250565b7f4552433732313a207472616e736665722066726f6d20696e636f72726563742060008201527f6f776e6572000000000000000000000000000000000000000000000000000000602082015250565b7f4552433732313a20746f6b656e20616c7265616479206d696e74656400000000600082015250565b7f4552433732313a207472616e7366657220746f20746865207a65726f2061646460008201527f7265737300000000000000000000000000000000000000000000000000000000602082015250565b7f4552433732313a20617070726f766520746f2063616c6c657200000000000000600082015250565b7f4552433732313a206f70657261746f7220717565727920666f72206e6f6e657860008201527f697374656e7420746f6b656e0000000000000000000000000000000000000000602082015250565b7f4552433732313a207472616e736665722063616c6c6572206973206e6f74206160008201527f7070726f766564206f72206f776e657200000000000000000000000000000000602082015250565b7f4552433732313a20617070726f76652063616c6c6572206973206e6f74206f7760008201527f6e6572206e6f7220617070726f76656420666f7220616c6c0000000000000000602082015250565b7f4552433732313a2062616c616e636520717565727920666f7220746865207a6560008201527f726f206164647265737300000000000000000000000000000000000000000000602082015250565b7f4552433732313a206f776e657220717565727920666f72206e6f6e657869737460008201527f656e7420746f6b656e0000000000000000000000000000000000000000000000602082015250565b7f4552433732313a206d696e7420746f20746865207a65726f2061646472657373600082015250565b7f4552433732313a20617070726f76656420717565727920666f72206e6f6e657860008201527f697374656e7420746f6b656e0000000000000000000000000000000000000000602082015250565b7f4552433732314d657461646174613a2055524920717565727920666f72206e6f60008201527f6e6578697374656e7420746f6b656e0000000000000000000000000000000000602082015250565b7f4552433732313a20617070726f76616c20746f2063757272656e74206f776e6560008201527f7200000000000000000000000000000000000000000000000000000000000000602082015250565b7f4552433732313a207472616e736665722063616c6c6572206973206e6f74206f60008201527f776e6572206e6f7220617070726f766564000000000000000000000000000000602082015250565b6133fc81612d5a565b811461340757600080fd5b50565b61341381612d6c565b811461341e57600080fd5b50565b61342a81612d78565b811461343557600080fd5b50565b61344181612dce565b811461344c57600080fd5b5056fea26469706673582212202952d08027d88f2ea9e5eb2db693f5dfd307c9eac383a852221f7045f33ed07864736f6c63430008020033",
  "immutableReferences": {},
  "source": "// SPDX-License-Identifier: MIT\r\npragma solidity ^0.8.0;\r\n\r\nimport \"@openzeppelin/contracts/token/ERC721/ERC721.sol\";\r\n\r\ncontract Land is ERC721 {\r\n\r\n   uint256 public cost = 1 ether;\r\n   uint256 public maxSupply = 5;\r\n   uint256 public totalSupply = 0;\r\n\r\n   struct Building{\r\n       string name;\r\n       address owner;\r\n       int256 posX;\r\n       int256 posY;\r\n       int256 posZ;\r\n       uint256 sizeX;\r\n       uint256 sizeY;\r\n       uint256 sizeZ;\r\n    }\r\n\r\n    Building[] public buildings;\r\n\r\n    constructor(string memory _name, string memory _symbol, uint256 _cost) ERC721(_name, _symbol) {\r\n        cost= _cost;\r\n        buildings.push(\r\n            Building(\"City Hall\", address(0x0), 0, 0, 0, 10, 10, 10)\r\n        );\r\n        buildings.push(\r\n            Building(\"Stadium\", address(0x0), 0, 10, 0, 10, 5, 3)\r\n        );\r\n        buildings.push(\r\n            Building(\"University\", address(0x0), 0, -10, 0, 10, 5, 3)\r\n        );\r\n        buildings.push(\r\n            Building(\"Shopping Plaza 1\", address(0x0), 10, 0, 0, 5, 25, 5)\r\n        );\r\n        buildings.push(\r\n            Building(\"Shopping Plaza 2\", address(0x0), -10, 0, 0, 5, 25, 5)\r\n        );\r\n    }\r\n\r\n    function mint(uint256 _id) public payable{\r\n        uint256 supply = totalSupply;\r\n        require(supply <= maxSupply);\r\n        require(buildings[_id -1].owner == address(0x0));    \r\n        require(msg.value >= 1 ether);\r\n\r\n        buildings[_id -1].owner = msg.sender;\r\n        totalSupply = totalSupply + 1;\r\n        _safeMint(msg.sender, _id);\r\n    }\r\n\r\n    function transferFrom(\r\n        address from,\r\n        address to,\r\n        uint256 tokenId        \r\n    ) public override {\r\n        require(\r\n            _isApprovedOrOwner(_msgSender(), tokenId),\r\n            \"ERC721: transfer caller is not approved or owner\"\r\n\r\n            );\r\n            buildings[tokenId -1].owner = to;\r\n            _transfer(from, to, tokenId);\r\n\r\n    }\r\n\r\n    function safeTransferFrom(\r\n        address from,\r\n        address to,\r\n        uint256 tokenId,\r\n        bytes memory _data\r\n    ) public override {\r\n        require(\r\n            _isApprovedOrOwner(_msgSender(), tokenId),\r\n            \"ERC721: transfer caller is not owner nor approved\"\r\n        );\r\n\r\n        // Update Building ownership\r\n        buildings[tokenId - 1].owner = to;\r\n\r\n        _safeTransfer(from, to, tokenId, _data);\r\n    }\r\n\r\n\r\n        function getBuildings() public view returns(Building[] memory){\r\n            return buildings;\r\n        }\r\n        function getBuilding(uint256 _id) public view returns(Building memory){\r\n            return buildings[_id -1];\r\n        }   \r\n    \r\n\r\n}\r\n\r\n",
  "sourcePath": "D:\\metaverse\\src\\contracts\\Land.sol",
  "compiler": {
    "name": "solc",
    "version": "0.8.2+commit.661d1103.Emscripten.clang"
  },
  "schemaVersion": "3.4.6",
  "updatedAt": "2022-04-03T11:58:26.178Z",
  "networkType": "ethereum",
  "devdoc": {
    "kind": "dev",
    "methods": {
      "approve(address,uint256)": {
        "details": "See {IERC721-approve}."
      },
      "balanceOf(address)": {
        "details": "See {IERC721-balanceOf}."
      },
      "getApproved(uint256)": {
        "details": "See {IERC721-getApproved}."
      },
      "isApprovedForAll(address,address)": {
        "details": "See {IERC721-isApprovedForAll}."
      },
      "name()": {
        "details": "See {IERC721Metadata-name}."
      },
      "ownerOf(uint256)": {
        "details": "See {IERC721-ownerOf}."
      },
      "safeTransferFrom(address,address,uint256)": {
        "details": "See {IERC721-safeTransferFrom}."
      },
      "safeTransferFrom(address,address,uint256,bytes)": {
        "details": "See {IERC721-safeTransferFrom}."
      },
      "setApprovalForAll(address,bool)": {
        "details": "See {IERC721-setApprovalForAll}."
      },
      "supportsInterface(bytes4)": {
        "details": "See {IERC165-supportsInterface}."
      },
      "symbol()": {
        "details": "See {IERC721Metadata-symbol}."
      },
      "tokenURI(uint256)": {
        "details": "See {IERC721Metadata-tokenURI}."
      },
      "transferFrom(address,address,uint256)": {
        "details": "See {IERC721-transferFrom}."
      }
    },
    "version": 1
  },
  "userdoc": {
    "kind": "user",
    "methods": {},
    "version": 1
  }
}